:100000000C945D000C9485000C9485000C94850084
:100010000C9485000C9485000C9485000C9485004C
:100020000C9485000C9485000C9485000C947D0341
:100030000C9485000C9485000C9485000C9485002C
:100040000C9433030C9485000C9401030C94DB0294
:100050000C9485000C9485000C9485000C9485000C
:100060000C9485000C94850000000008000201003B
:100070000003040700000000000000000000000072
:10008000250028002B0000000000240027002A0083
:10009000040404040404040402020202020203032E
:1000A0000303030301020408102040800102040836
:1000B00010200102040810203E0411241FBECFEFBF
:1000C000D8E0DEBFCDBF23E0A8EDB2E001C01D92B5
:1000D000A63CB207E1F712E0A0E0B1E0E8E1FFE002
:1000E00002C005900D92A83DB107D9F710E0CDE50B
:1000F000D0E004C02197FE010E94C006CC35D10794
:10010000C9F70E94A1040C948A070C940000CF92B6
:10011000DF92EF92FF920F931F93CF93DF936C01C7
:100120007A018B01C0E0D0E0CE15DF0589F0D8015F
:100130006D918D01D601ED91FC910190F081E02D42
:10014000C6010995892B11F47E0102C02196ECCFDE
:10015000C701DF91CF911F910F91FF90EF90DF903A
:10016000CF900895FC01918D828D981761F0828D5A
:10017000DF01A80FB11D5D968C91928D9F5F9F73DB
:10018000928F90E008958FEF9FEF0895FC01918D7D
:10019000828D981731F0828DE80FF11D858D90E0EA
:1001A00008958FEF9FEF0895FC01918D228D892F87
:1001B00090E0805C9F4F821B91098F73992708956F
:1001C0008CEE92E00E94D40021E0892B09F420E01B
:1001D000822F0895FC01848DDF01A80FB11DA35A61
:1001E000BF4F2C91848D90E001968F739927848F57
:1001F000A689B7892C93A089B1898C9180648C934E
:10020000938D848D981306C00288F389E02D808138
:100210008F7D80830895EF92FF920F931F93CF936A
:10022000DF93EC0181E0888F9B8D8C8D981305C046
:10023000E889F989808185FD24C0F62E0B8D10E0B8
:100240000F5F1F4F0F731127E02E8C8DE8120CC02B
:100250000FB607FCFACFE889F989808185FFF5CFD1
:10026000CE010E94EA00F1CF8B8DFE01E80FF11D57
:10027000E35AFF4FF0820B8FEA89FB89808180620D
:1002800007C0EE89FF896083E889F98980818064ED
:10029000808381E090E0DF91CF911F910F91FF90DB
:1002A000EF900895CF93DF93EC01888D8823C9F0F8
:1002B000EA89FB89808185FD05C0A889B9898C916F
:1002C00086FD0FC00FB607FCF5CF808185FFF2CF0A
:1002D000A889B9898C9185FFEDCFCE010E94EA00F3
:1002E000E7CFDF91CF91089580E090E0892B29F04E
:1002F0000E94E00081110C940000089590E0FC0140
:10030000E859FF4F3491FC01EC55FF4F2491FC015B
:10031000E057FF4FE491EE2309F43BC0332339F15A
:10032000333091F038F43130A9F0323001F584B532
:100330008F7D12C0373091F03830A1F03430B9F4ED
:10034000809180008F7D03C0809180008F778093A3
:1003500080000DC084B58F7784BD09C08091B00046
:100360008F7703C08091B0008F7D8093B000F0E064
:10037000EE0FFF1FE458FF4FA591B4918FB7F8948B
:10038000EC91611103C020952E2301C02E2B2C93DC
:100390008FBF08953FB7F8948091DA029091DB0205
:1003A000A091DC02B091DD0226B5A89B05C02F3FCD
:1003B00019F00196A11DB11D3FBFBA2FA92F982F8B
:1003C0008827820F911DA11DB11DBC01CD0142E006
:1003D000660F771F881F991F4A95D1F708958F924E
:1003E0009F92AF92BF92CF92DF92EF92FF926B01FA
:1003F0007C010E94CA014B015C01C114D104E104DB
:10040000F104F1F00E94CA01DC01CB0188199909BD
:10041000AA09BB09883E9340A105B10570F321E00C
:10042000C21AD108E108F10888EE880E83E0981E10
:10043000A11CB11CC114D104E104F10419F7DDCFF2
:10044000FF90EF90DF90CF90BF90AF909F908F90F4
:100450000895CF92DF92EF92FF92CF93DF93EC015A
:10046000603282E078070CF03DC077FD06C0653B46
:1004700071052CF064EB70E002C060E070E08981EF
:1004800028E830E06901C81AD10887FDD394CC0C64
:10049000DD1CCC0CDD1C0D2C000CEE08FF088A8145
:1004A00028E532E0281B310987FD3395220F331FE1
:1004B000220F331FC901330FAA0BBB0B9C01AD01E7
:1004C0002C193D094E095F09DB010E94510724EBFD
:1004D00030E040E050E00E942707C20ED31EE41E29
:1004E000F51EB60188818C3080F5998148E850E08E
:1004F000491B510997FD5395440F551F440F551F34
:100500006417750784F09A8128E532E0291B3109C8
:1005100097FD3395220F331F220F331FAB01261790
:1005200037070CF4A90142505109440F551F2FB74A
:10053000F89490E0FC01EE0FFF1F8E0F9F1FFC014F
:10054000E757FC4F528341832FBFDF91CF91FF903C
:10055000EF90DF90CF900895CF93DF93EC016A8105
:100560007B816F3F2FEF720709F1888199818F3F5F
:100570004FEF9407D9F02C813D812F3F3F4FB1F0D1
:100580009C01220F331F820F931F82559C4F0E94A4
:1005900029026C817D811616170634F4072E000C93
:1005A000880B990B0E94EF012696D9CFDF91CF914E
:1005B00008950E94C6061F920F920FB60F92112443
:1005C0002F933F934F935F936F937F938F939F935B
:1005D000AF93BF93EF93FF938CEE92E00E94EA00FB
:1005E000FF91EF91BF91AF919F918F917F916F910B
:1005F0005F914F913F912F910F900FBE0F901F90E1
:1006000018951F920F920FB60F9211242F938F936C
:100610009F93EF93FF93E091FC02F091FD028081A4
:10062000E0910203F091030382FD12C0908180915A
:1006300005038F5F8F7320910603821751F0E091BD
:100640000503F0E0E451FD4F958F8093050301C051
:100650008081FF91EF919F918F912F910F900FBE0D
:100660000F901F9018951F920F920FB60F921124A2
:100670002F933F938F939F93AF93BF938091DE020D
:100680009091DF02A091E002B091E1023091D90295
:1006900023E0230F2D3720F40196A11DB11D05C0C5
:1006A00026E8230F0296A11DB11D2093D902809345
:1006B000DE029093DF02A093E002B093E10280910A
:1006C000DA029091DB02A091DC02B091DD0201968A
:1006D000A11DB11D8093DA029093DB02A093DC028E
:1006E000B093DD02BF91AF919F918F913F912F9178
:1006F0000F900FBE0F901F9018951F920F920FB67C
:100700000F9211242F933F934F935F936F937F9397
:100710008F939F93AF93BF93EF93FF938091D802F2
:1007200087FF05C010928500109284001BC02091A5
:10073000D802022E000C330B8091AD0390E02817F5
:10074000390784F48091D802082E000C990BFC0123
:10075000EE0FFF1F8E0F9F1FFC01E757FC4F80819C
:1007600086FD15C08091D8028F5F8093D8022091BA
:10077000D802022E000C330B8091AD0390E02817B5
:100780003907C4F48091D8028C3064F113C0809191
:10079000D802082E000C990BFC01EE0FFF1F8E0FE4
:1007A0009F1FFC01E757FC4F808160E08F730E9420
:1007B0007E01D8CF8091840090918500049680348A
:1007C0009C4918F480E49CE905C0809184009091D4
:1007D0008500049690938900809388008FEF809322
:1007E000D8023BC020918400309185008091D802CE
:1007F000082E000C990BFC01EE0FFF1F8E0F9F1FA0
:10080000FC01E757FC4F81819281820F931F9093E7
:100810008900809388008091D802082E000C990BE3
:10082000FC01EE0FFF1F8E0F9F1FFC01E757FC4FCF
:10083000808186FF12C08091D802082E000C990B8F
:10084000FC01EE0FFF1F8E0F9F1FFC01E757FC4FAF
:10085000808161E08F730E947E01FF91EF91BF91D3
:10086000AF919F918F917F916F915F914F913F9148
:100870002F910F900FBE0F901F9018951092EF02BE
:100880001092EE0288EE93E0A0E0B0E08093F002D8
:100890009093F102A093F202B093F3028BEC92E0FA
:1008A0009093ED028093EC0285EC90E09093F90236
:1008B0008093F80284EC90E09093FB028093FA021C
:1008C00080EC90E09093FD028093FC0281EC90E03C
:1008D0009093FF028093FE0282EC90E090930103DC
:1008E0008093000386EC90E09093030380930203CF
:1008F000109205031092060310920703109208034A
:100900008091AD03AEEAB3E09FEF48EB5BE08C3043
:1009100078F48C93282F30E0F901EE0FFF1F2E0F93
:100920003F1FF901E757FC4F528341838F5F01C09E
:100930009C93139623E0A63CB20749F78093AD033E
:100940000895CF93DF931F92CDB7DEB7789484B527
:10095000826084BD84B5816084BD85B5826085BDBB
:1009600085B5816085BD80916E00816080936E0049
:10097000109281008091810082608093810080913B
:1009800081008160809381008091800081608093EC
:1009900080008091B10084608093B1008091B000AC
:1009A00081608093B00080917A00846080937A00A7
:1009B00080917A00826080937A0080917A008160D1
:1009C00080937A0080917A00806880937A001092F8
:1009D000C100EEEAAE2EE3E0BE2E00EB13E042E0F3
:1009E000E12CF12CFCE0DF2EA2E0CA2ED5018C9187
:1009F0008C3008F06FC097012E5F3F4FF901EC5526
:100A0000FF4F8491F901E057FF4F2491222399F081
:100A100030E0220F331FF901EA57FF4FA591B4913F
:100A2000F901E458FF4F259134919FB7F894EC9168
:100A30008E2B8C939FBFF5018081E82FF0E09F0102
:100A4000220F331FE20FF31FE757FC4F9081907C7A
:100A5000242F2F73922B9083F80131971082D801A5
:100A60001C926D2D0E94B406ECE08E9FD0011124E3
:100A700060E070E09B012A0F3B1FF901EE0FFF1FA2
:100A80002E0F3F1FF901E757FC4F908196FD15C0CF
:100A90006F5F7F4F6C30710569F781110EC0109246
:100AA0008000C09281001092850010928400B19A5B
:100AB00080916F00826080936F00D501EC91F0E02F
:100AC000CF01880F991FE80FF91FE757FC4F80816E
:100AD000806480836AE570E0C50149830E94290231
:100AE000BFEFEB1AFB0AE3E0AE0EB11C49814F5F8A
:100AF0004F730D5F1F4F4A3009F078CFE091FC0231
:100B0000F091FD0282E08083E091F802F091F90219
:100B10001082E091FA02F091FB028FEC8083109238
:100B20000403E0910003F091010386E08083E091EB
:100B3000FE02F091FF02808180618083E091FE02DD
:100B4000F091FF02808188608083E091FE02F09145
:100B5000FF02808180688083E091FE02F091FF02B5
:100B600080818F7D80838CE892E00E94AC0280E4DB
:100B700080937C0080917A00806480937A008091D9
:100B80007A0086FDFCCF609178008091790070E05A
:100B9000782B072E000C880B990B611571058105C8
:100BA000910511F00E941E072FB7F8948091DE0284
:100BB0009091DF02A091E002B091E1022FBF8093FB
:100BC000E3029093E402A093E502B093E6028093DF
:100BD000E7029093E802A093E902B093EA0281E66B
:100BE0008093EB028093E20268EB7BE080E090E090
:100BF0000E94EF0183E6B82EAA24A39495E0C92EA3
:100C0000D12CE12CF12C8CEE92E00E94D40018162D
:100C100019068CF48CEE92E00E94B2008093EB02F5
:100C2000863629F0873639F4A092C20202C01092AB
:100C3000C202B092EB028091C202811114C0809175
:100C4000EB02833609F489C03CF4813609F451C0C3
:100C5000823609F468C085C0843609F471C08536CF
:100C600009F454C07EC02FB7F8948091DE029091B1
:100C7000DF02A091E002B091E1022FBF8093E70272
:100C80009093E802A093E902B093EA024091E30254
:100C90005091E4026091E5027091E6028C019D01A1
:100CA000041B150B260B370BB901A801483853411B
:100CB0006105710520F28093E3029093E402A09312
:100CC000E502B093E6020E941907A70196010E946F
:100CD0002707DC01CB018F599F4FAF4FBF4F282F04
:100CE0008093EB028091E202281769F3233659F3CF
:100CF000A6CF9091E202913631F08093E2028CE827
:100D000092E00E94AC0284E192E029C09091E2025C
:100D1000953631F08093E2028CE892E00E94AC02BA
:100D200082EA91E01CC09091E202923631F0809309
:100D3000E2028CE892E00E94AC028EE491E00FC0E7
:100D40009091E202943631F08093E2028CE892E0D6
:100D50000E94AC0280E091E002C08CE892E00E9428
:100D6000AC020E9474014FCF991B79E004C0991F17
:100D7000961708F0961B881F7A95C9F780950895F5
:100D8000EE0FFF1F0590F491E02D099481E090E0B3
:100D9000F8940C948A078F929F92AF92BF92CF9251
:100DA000DF92EF92FF92CF93DF93EC01688179811C
:100DB0008A819B81611571058105910521F464E2A9
:100DC00079ED8BE597E02DE133EF41E050E00E94B3
:100DD000270749015A019B01AC01A7EAB1E40E942F
:100DE00046076B017C01ACEEB4EFA50194010E94B3
:100DF0005407DC01CB018C0D9D1DAE1DBF1DB7FF3F
:100E000003C00197A109B04888839983AA83BB8353
:100E1000BC01CD019F77DF91CF91FF90EF90DF90E4
:100E2000CF90BF90AF909F908F9008950E94CB0677
:100E3000089583EC92E00E94CB0608956093C3026C
:100E40007093C4028093C5029093C6020895052E44
:100E500097FB1EF400940E943E0757FD07D00E94A6
:100E6000590707FC03D04EF40C943E07509540956B
:100E7000309521953F4F4F4F5F4F08959095809546
:100E8000709561957F4F8F4F9F4F08950E947B070C
:100E9000A59F900DB49F900DA49F800D911D1124CE
:100EA0000895B7FF0C9446070E944607821B930BD8
:100EB0000895A1E21A2EAA1BBB1BFD010DC0AA1F9B
:100EC000BB1FEE1FFF1FA217B307E407F50720F0B3
:100ED000A21BB30BE40BF50B661F771F881F991F2E
:100EE0001A9469F760957095809590959B01AC0177
:100EF000BD01CF010895A29FB001B39FC001A39F80
:100F0000700D811D1124911DB29F700D811D112442
:080F1000911D0895F894FFCF34
:100F180001003200000005003200640000003200C9
:100F2800000004003200640001005A0000000500BF
:100F38005A00640003009600000007009600640051
:100F480000007D00000004007D00640003005A00DA
:100F5800000007005A006400FFFFFFFFFFFF0300C7
:100F6800960000000400840000000700960064005A
:100F780002007D00000006007D00640003005A00A6
:100F8800000007005A00640001001E000000050070
:100F98001E006400020037000000060037006400ED
:100FA80001005A00000005005A006400FFFFFFFF1F
:100FB800FFFF00007D00000001003C00000002006F
:100FC8003700000003005A000000040096000000EB
:100FD80005003C00000006003700000007005A002A
:100FE800C80000005000000002006400C8000100B2
:100FF8005A00000003007800000005005A000000B5
:1010080007007800C80000007D00000002003700DB
:10101800000004005000000006006E00C800FFFF3A
:10102800FFFFFFFF00008C00000001003C000000F3
:1010380002002800000003005A0000000400960087
:10104800000005003C000000060037000000070013
:101058005A00C80004005000000006006400C800E0
:1010680001005A00000003007800000005006E002F
:10107800000007007800C8000000500000000200CF
:101088006400000003005A00000004007D00000016
:1010980006003700C800FFFFFFFFFFFF00007D00CC
:1010A800000002003700000004007D000000060078
:1010B8003700000001005A00000003005A00000039
:1010C80005005A00000007005A009600FFFFFFFFC6
:1010D800FFFF0101000000000000000B018700D4A1
:0810E80000B200C60052010035
:00000001FF
